{
  "contractName": "Survey",
  "abi": [
    {
      "constant": true,
      "inputs": [
        {
          "name": "",
          "type": "uint256"
        }
      ],
      "name": "participantList",
      "outputs": [
        {
          "name": "",
          "type": "address"
        }
      ],
      "payable": false,
      "stateMutability": "view",
      "type": "function"
    },
    {
      "constant": true,
      "inputs": [
        {
          "name": "",
          "type": "uint256"
        }
      ],
      "name": "surveyList",
      "outputs": [
        {
          "name": "",
          "type": "address"
        }
      ],
      "payable": false,
      "stateMutability": "view",
      "type": "function"
    },
    {
      "constant": true,
      "inputs": [],
      "name": "signatureAddress",
      "outputs": [
        {
          "name": "",
          "type": "address"
        }
      ],
      "payable": false,
      "stateMutability": "view",
      "type": "function"
    },
    {
      "constant": true,
      "inputs": [
        {
          "name": "",
          "type": "uint256"
        }
      ],
      "name": "claimStruct",
      "outputs": [
        {
          "name": "SId",
          "type": "string"
        },
        {
          "name": "winner",
          "type": "address"
        },
        {
          "name": "prize",
          "type": "uint256"
        }
      ],
      "payable": false,
      "stateMutability": "view",
      "type": "function"
    },
    {
      "constant": true,
      "inputs": [],
      "name": "claimCount",
      "outputs": [
        {
          "name": "",
          "type": "uint256"
        }
      ],
      "payable": false,
      "stateMutability": "view",
      "type": "function"
    },
    {
      "constant": true,
      "inputs": [
        {
          "name": "",
          "type": "address"
        }
      ],
      "name": "participantStruct",
      "outputs": [
        {
          "name": "Id",
          "type": "string"
        },
        {
          "name": "SId",
          "type": "string"
        },
        {
          "name": "owner",
          "type": "address"
        }
      ],
      "payable": false,
      "stateMutability": "view",
      "type": "function"
    },
    {
      "constant": true,
      "inputs": [
        {
          "name": "",
          "type": "address"
        }
      ],
      "name": "surveyStruct",
      "outputs": [
        {
          "name": "Id",
          "type": "string"
        },
        {
          "name": "owner",
          "type": "address"
        },
        {
          "name": "sHash",
          "type": "bytes32"
        },
        {
          "name": "done",
          "type": "bool"
        }
      ],
      "payable": false,
      "stateMutability": "view",
      "type": "function"
    },
    {
      "inputs": [
        {
          "name": "_addr",
          "type": "address"
        }
      ],
      "payable": false,
      "stateMutability": "nonpayable",
      "type": "constructor"
    },
    {
      "constant": false,
      "inputs": [
        {
          "name": "_id",
          "type": "string"
        },
        {
          "name": "_owner",
          "type": "address"
        },
        {
          "name": "_data",
          "type": "string"
        }
      ],
      "name": "addSurvey",
      "outputs": [
        {
          "name": "",
          "type": "bool"
        }
      ],
      "payable": true,
      "stateMutability": "payable",
      "type": "function"
    },
    {
      "constant": false,
      "inputs": [
        {
          "name": "_id",
          "type": "string"
        },
        {
          "name": "_winner",
          "type": "address"
        },
        {
          "name": "_prize",
          "type": "uint256"
        }
      ],
      "name": "endSurvey",
      "outputs": [
        {
          "name": "",
          "type": "bool"
        }
      ],
      "payable": false,
      "stateMutability": "nonpayable",
      "type": "function"
    },
    {
      "constant": false,
      "inputs": [
        {
          "name": "_owner",
          "type": "address"
        }
      ],
      "name": "cancelSurvey",
      "outputs": [
        {
          "name": "",
          "type": "bool"
        }
      ],
      "payable": false,
      "stateMutability": "nonpayable",
      "type": "function"
    },
    {
      "constant": false,
      "inputs": [
        {
          "name": "_winner",
          "type": "address"
        },
        {
          "name": "msgHash",
          "type": "bytes32"
        },
        {
          "name": "v",
          "type": "uint8"
        },
        {
          "name": "r",
          "type": "bytes32"
        },
        {
          "name": "s",
          "type": "bytes32"
        }
      ],
      "name": "claimPrize",
      "outputs": [
        {
          "name": "",
          "type": "bool"
        }
      ],
      "payable": false,
      "stateMutability": "nonpayable",
      "type": "function"
    },
    {
      "constant": true,
      "inputs": [],
      "name": "checkPrize",
      "outputs": [
        {
          "name": "",
          "type": "address[]"
        }
      ],
      "payable": false,
      "stateMutability": "view",
      "type": "function"
    },
    {
      "constant": true,
      "inputs": [],
      "name": "getBalance",
      "outputs": [
        {
          "name": "",
          "type": "uint256"
        }
      ],
      "payable": false,
      "stateMutability": "view",
      "type": "function"
    },
    {
      "constant": false,
      "inputs": [
        {
          "name": "_id",
          "type": "string"
        },
        {
          "name": "_sid",
          "type": "string"
        },
        {
          "name": "_owner",
          "type": "address"
        }
      ],
      "name": "addParticipation",
      "outputs": [
        {
          "name": "",
          "type": "bool"
        }
      ],
      "payable": false,
      "stateMutability": "nonpayable",
      "type": "function"
    },
    {
      "constant": true,
      "inputs": [
        {
          "name": "_owner",
          "type": "address"
        }
      ],
      "name": "surveyExsist",
      "outputs": [
        {
          "name": "",
          "type": "bool"
        }
      ],
      "payable": false,
      "stateMutability": "view",
      "type": "function"
    },
    {
      "constant": true,
      "inputs": [
        {
          "name": "_owner",
          "type": "address"
        }
      ],
      "name": "getSurveyByAddress",
      "outputs": [
        {
          "name": "",
          "type": "string"
        }
      ],
      "payable": false,
      "stateMutability": "view",
      "type": "function"
    },
    {
      "constant": true,
      "inputs": [
        {
          "name": "_owner",
          "type": "address"
        }
      ],
      "name": "getparticipantByAddress",
      "outputs": [
        {
          "name": "",
          "type": "string"
        },
        {
          "name": "",
          "type": "string"
        }
      ],
      "payable": false,
      "stateMutability": "view",
      "type": "function"
    }
  ],
  "bytecode": "0x608060405234801561001057600080fd5b506040516020806128d18339810180604052602081101561003057600080fd5b8101908080519060200190929190505050806000806101000a81548173ffffffffffffffffffffffffffffffffffffffff021916908373ffffffffffffffffffffffffffffffffffffffff16021790555050612840806100916000396000f3fe6080604052600436106100fe5760003560e01c80634de2d5d51161009557806398e26ba31161006457806398e26ba314610928578063b5a6c1c514610a91578063cc95a1d114610afa578063d26f3e6e14610c30578063f9ae457514610cfa576100fe565b80634de2d5d5146106195780635aa7524e1461068557806368e1720d1461080f5780638da4d3c9146108fd576100fe565b80632d5b8075116100d15780632d5b80751461034757806339f8ab65146103b05780633b6dc6b41461042b578063492ef61014610482576100fe565b8063058536b6146101035780630e6fdaa11461019757806312065fe014610212578063133f43d81461023d575b600080fd5b34801561010f57600080fd5b5061017d600480360360a081101561012657600080fd5b81019080803573ffffffffffffffffffffffffffffffffffffffff16906020019092919080359060200190929190803560ff1690602001909291908035906020019092919080359060200190929190505050610e09565b604051808215151515815260200191505060405180910390f35b3480156101a357600080fd5b506101d0600480360360208110156101ba57600080fd5b8101908080359060200190929190505050611151565b604051808273ffffffffffffffffffffffffffffffffffffffff1673ffffffffffffffffffffffffffffffffffffffff16815260200191505060405180910390f35b34801561021e57600080fd5b5061022761118d565b6040518082815260200191505060405180910390f35b34801561024957600080fd5b5061032d6004803603606081101561026057600080fd5b810190808035906020019064010000000081111561027d57600080fd5b82018360208201111561028f57600080fd5b803590602001918460018302840111640100000000831117156102b157600080fd5b91908080601f016020809104026020016040519081016040528093929190818152602001838380828437600081840152601f19601f820116905080830192505050505050509192919290803573ffffffffffffffffffffffffffffffffffffffff169060200190929190803590602001909291905050506111ac565b604051808215151515815260200191505060405180910390f35b34801561035357600080fd5b506103966004803603602081101561036a57600080fd5b81019080803573ffffffffffffffffffffffffffffffffffffffff169060200190929190505050611437565b604051808215151515815260200191505060405180910390f35b3480156103bc57600080fd5b506103e9600480360360208110156103d357600080fd5b810190808035906020019092919050505061153b565b604051808273ffffffffffffffffffffffffffffffffffffffff1673ffffffffffffffffffffffffffffffffffffffff16815260200191505060405180910390f35b34801561043757600080fd5b50610440611577565b604051808273ffffffffffffffffffffffffffffffffffffffff1673ffffffffffffffffffffffffffffffffffffffff16815260200191505060405180910390f35b34801561048e57600080fd5b506105ff600480360360608110156104a557600080fd5b81019080803590602001906401000000008111156104c257600080fd5b8201836020820111156104d457600080fd5b803590602001918460018302840111640100000000831117156104f657600080fd5b91908080601f016020809104026020016040519081016040528093929190818152602001838380828437600081840152601f19601f8201169050808301925050505050505091929192908035906020019064010000000081111561055957600080fd5b82018360208201111561056b57600080fd5b8035906020019184600183028401116401000000008311171561058d57600080fd5b91908080601f016020809104026020016040519081016040528093929190818152602001838380828437600081840152601f19601f820116905080830192505050505050509192919290803573ffffffffffffffffffffffffffffffffffffffff16906020019092919050505061159c565b604051808215151515815260200191505060405180910390f35b34801561062557600080fd5b5061062e611856565b6040518080602001828103825283818151815260200191508051906020019060200280838360005b83811015610671578082015181840152602081019050610656565b505050509050019250505060405180910390f35b6107f56004803603606081101561069b57600080fd5b81019080803590602001906401000000008111156106b857600080fd5b8201836020820111156106ca57600080fd5b803590602001918460018302840111640100000000831117156106ec57600080fd5b91908080601f016020809104026020016040519081016040528093929190818152602001838380828437600081840152601f19601f820116905080830192505050505050509192919290803573ffffffffffffffffffffffffffffffffffffffff1690602001909291908035906020019064010000000081111561076f57600080fd5b82018360208201111561078157600080fd5b803590602001918460018302840111640100000000831117156107a357600080fd5b91908080601f016020809104026020016040519081016040528093929190818152602001838380828437600081840152601f19601f8201169050808301925050505050505091929192905050506118e4565b604051808215151515815260200191505060405180910390f35b34801561081b57600080fd5b506108486004803603602081101561083257600080fd5b8101908080359060200190929190505050611bce565b60405180806020018473ffffffffffffffffffffffffffffffffffffffff1673ffffffffffffffffffffffffffffffffffffffff168152602001838152602001828103825285818151815260200191508051906020019080838360005b838110156108c05780820151818401526020810190506108a5565b50505050905090810190601f1680156108ed5780820380516001836020036101000a031916815260200191505b5094505050505060405180910390f35b34801561090957600080fd5b50610912611cb0565b6040518082815260200191505060405180910390f35b34801561093457600080fd5b506109776004803603602081101561094b57600080fd5b81019080803573ffffffffffffffffffffffffffffffffffffffff169060200190929190505050611cb6565b6040518080602001806020018473ffffffffffffffffffffffffffffffffffffffff1673ffffffffffffffffffffffffffffffffffffffff168152602001838103835286818151815260200191508051906020019080838360005b838110156109ed5780820151818401526020810190506109d2565b50505050905090810190601f168015610a1a5780820380516001836020036101000a031916815260200191505b50838103825285818151815260200191508051906020019080838360005b83811015610a53578082015181840152602081019050610a38565b50505050905090810190601f168015610a805780820380516001836020036101000a031916815260200191505b509550505050505060405180910390f35b348015610a9d57600080fd5b50610ae060048036036020811015610ab457600080fd5b81019080803573ffffffffffffffffffffffffffffffffffffffff169060200190929190505050611e30565b604051808215151515815260200191505060405180910390f35b348015610b0657600080fd5b50610b4960048036036020811015610b1d57600080fd5b81019080803573ffffffffffffffffffffffffffffffffffffffff16906020019092919050505061203a565b604051808060200180602001838103835285818151815260200191508051906020019080838360005b83811015610b8d578082015181840152602081019050610b72565b50505050905090810190601f168015610bba5780820380516001836020036101000a031916815260200191505b50838103825284818151815260200191508051906020019080838360005b83811015610bf3578082015181840152602081019050610bd8565b50505050905090810190601f168015610c205780820380516001836020036101000a031916815260200191505b5094505050505060405180910390f35b348015610c3c57600080fd5b50610c7f60048036036020811015610c5357600080fd5b81019080803573ffffffffffffffffffffffffffffffffffffffff169060200190929190505050612303565b6040518080602001828103825283818151815260200191508051906020019080838360005b83811015610cbf578082015181840152602081019050610ca4565b50505050905090810190601f168015610cec5780820380516001836020036101000a031916815260200191505b509250505060405180910390f35b348015610d0657600080fd5b50610d4960048036036020811015610d1d57600080fd5b81019080803573ffffffffffffffffffffffffffffffffffffffff169060200190929190505050612543565b60405180806020018573ffffffffffffffffffffffffffffffffffffffff1673ffffffffffffffffffffffffffffffffffffffff16815260200184815260200183151515158152602001828103825286818151815260200191508051906020019080838360005b83811015610dcb578082015181840152602081019050610db0565b50505050905090810190601f168015610df85780820380516001836020036101000a031916815260200191505b509550505050505060405180910390f35b6000806000809054906101000a900473ffffffffffffffffffffffffffffffffffffffff16905060008173ffffffffffffffffffffffffffffffffffffffff166304962b5289898989896040518663ffffffff1660e01b8152600401808673ffffffffffffffffffffffffffffffffffffffff1673ffffffffffffffffffffffffffffffffffffffff1681526020018581526020018460ff1660ff1681526020018381526020018281526020019550505050505060206040518083038186803b158015610ed557600080fd5b505afa158015610ee9573d6000803e3d6000fd5b505050506040513d6020811015610eff57600080fd5b810190808051906020019092919050505090508773ffffffffffffffffffffffffffffffffffffffff168173ffffffffffffffffffffffffffffffffffffffff1614156111415760008090505b60065481101561113f578873ffffffffffffffffffffffffffffffffffffffff166005600083815260200190815260200160002060010160009054906101000a900473ffffffffffffffffffffffffffffffffffffffff1673ffffffffffffffffffffffffffffffffffffffff1614156111325760056000828152602001908152602001600020600201543073ffffffffffffffffffffffffffffffffffffffff16311015611063576040517f08c379a000000000000000000000000000000000000000000000000000000000815260040180806020018281038252600e8152602001807f6e6f20656e6f75676820636f696e00000000000000000000000000000000000081525060200191505060405180910390fd5b3373ffffffffffffffffffffffffffffffffffffffff166108fc60056000848152602001908152602001600020600201549081150290604051600060405180830381858888f193505050501580156110bf573d6000803e3d6000fd5b5060078990806001815401808255809150509060018203906000526020600020016000909192909190916101000a81548173ffffffffffffffffffffffffffffffffffffffff021916908373ffffffffffffffffffffffffffffffffffffffff1602179055505060019350505050611148565b8080600101915050610f4c565b505b6000925050505b95945050505050565b6004818154811061115e57fe5b906000526020600020016000915054906101000a900473ffffffffffffffffffffffffffffffffffffffff1681565b60003073ffffffffffffffffffffffffffffffffffffffff1631905090565b600080600090505b60028054905081101561142a576112dc8560016000600285815481106111d657fe5b9060005260206000200160009054906101000a900473ffffffffffffffffffffffffffffffffffffffff1673ffffffffffffffffffffffffffffffffffffffff1673ffffffffffffffffffffffffffffffffffffffff1681526020019081526020016000206000018054600181600116156101000203166002900480601f0160208091040260200160405190810160405280929190818152602001828054600181600116156101000203166002900480156112d25780601f106112a7576101008083540402835291602001916112d2565b820191906000526020600020905b8154815290600101906020018083116112b557829003601f168201915b5050505050612638565b1561141d576001806000600284815481106112f357fe5b9060005260206000200160009054906101000a900473ffffffffffffffffffffffffffffffffffffffff1673ffffffffffffffffffffffffffffffffffffffff1673ffffffffffffffffffffffffffffffffffffffff16815260200190815260200160002060030160006101000a81548160ff02191690831515021790555084600560006006548152602001908152602001600020600001908051906020019061139e929190612727565b508360056000600654815260200190815260200160002060010160006101000a81548173ffffffffffffffffffffffffffffffffffffffff021916908373ffffffffffffffffffffffffffffffffffffffff16021790555082600560006006548152602001908152602001600020600201819055506001915050611430565b80806001019150506111b4565b50600090505b9392505050565b60008173ffffffffffffffffffffffffffffffffffffffff16600160008473ffffffffffffffffffffffffffffffffffffffff1673ffffffffffffffffffffffffffffffffffffffff16815260200190815260200160002060010160009054906101000a900473ffffffffffffffffffffffffffffffffffffffff1673ffffffffffffffffffffffffffffffffffffffff161480156115235750600160008373ffffffffffffffffffffffffffffffffffffffff1673ffffffffffffffffffffffffffffffffffffffff16815260200190815260200160002060030160009054906101000a900460ff16155b156115315760019050611536565b600090505b919050565b6002818154811061154857fe5b906000526020600020016000915054906101000a900473ffffffffffffffffffffffffffffffffffffffff1681565b6000809054906101000a900473ffffffffffffffffffffffffffffffffffffffff1681565b60006115b78460405180602001604052806000815250612638565b1561162a576040517f08c379a000000000000000000000000000000000000000000000000000000000815260040180806020018281038252600c8152602001807f496420546f6f20536d616c6c000000000000000000000000000000000000000081525060200191505060405180910390fd5b6116438360405180602001604052806000815250612638565b156116b6576040517f08c379a000000000000000000000000000000000000000000000000000000000815260040180806020018281038252600d8152602001807f53496420546f6f20536d616c6c0000000000000000000000000000000000000081525060200191505060405180910390fd5b60048290806001815401808255809150509060018203906000526020600020016000909192909190916101000a81548173ffffffffffffffffffffffffffffffffffffffff021916908373ffffffffffffffffffffffffffffffffffffffff1602179055505083600360008473ffffffffffffffffffffffffffffffffffffffff1673ffffffffffffffffffffffffffffffffffffffff1681526020019081526020016000206000019080519060200190611772929190612727565b5082600360008473ffffffffffffffffffffffffffffffffffffffff1673ffffffffffffffffffffffffffffffffffffffff16815260200190815260200160002060010190805190602001906117c9929190612727565b5081600360008473ffffffffffffffffffffffffffffffffffffffff1673ffffffffffffffffffffffffffffffffffffffff16815260200190815260200160002060020160006101000a81548173ffffffffffffffffffffffffffffffffffffffff021916908373ffffffffffffffffffffffffffffffffffffffff160217905550600190509392505050565b606060078054806020026020016040519081016040528092919081815260200182805480156118da57602002820191906000526020600020905b8160009054906101000a900473ffffffffffffffffffffffffffffffffffffffff1673ffffffffffffffffffffffffffffffffffffffff1681526020019060010190808311611890575b5050505050905090565b60006118ff8460405180602001604052806000815250612638565b15611972576040517f08c379a000000000000000000000000000000000000000000000000000000000815260040180806020018281038252600c8152602001807f496420546f6f20536d616c6c000000000000000000000000000000000000000081525060200191505060405180910390fd5b60028390806001815401808255809150509060018203906000526020600020016000909192909190916101000a81548173ffffffffffffffffffffffffffffffffffffffff021916908373ffffffffffffffffffffffffffffffffffffffff1602179055505083600160008573ffffffffffffffffffffffffffffffffffffffff1673ffffffffffffffffffffffffffffffffffffffff1681526020019081526020016000206000019080519060200190611a2e929190612727565b5082600160008573ffffffffffffffffffffffffffffffffffffffff1673ffffffffffffffffffffffffffffffffffffffff16815260200190815260200160002060010160006101000a81548173ffffffffffffffffffffffffffffffffffffffff021916908373ffffffffffffffffffffffffffffffffffffffff160217905550816040516020018082805190602001908083835b60208310611ae75780518252602082019150602081019050602083039250611ac4565b6001836020036101000a03801982511681845116808217855250505050505090500191505060405160208183030381529060405280519060200120600160008573ffffffffffffffffffffffffffffffffffffffff1673ffffffffffffffffffffffffffffffffffffffff168152602001908152602001600020600201819055506000600160008573ffffffffffffffffffffffffffffffffffffffff1673ffffffffffffffffffffffffffffffffffffffff16815260200190815260200160002060030160006101000a81548160ff021916908315150217905550600190509392505050565b6005602052806000526040600020600091509050806000018054600181600116156101000203166002900480601f016020809104026020016040519081016040528092919081815260200182805460018160011615610100020316600290048015611c7a5780601f10611c4f57610100808354040283529160200191611c7a565b820191906000526020600020905b815481529060010190602001808311611c5d57829003601f168201915b5050505050908060010160009054906101000a900473ffffffffffffffffffffffffffffffffffffffff16908060020154905083565b60065481565b6003602052806000526040600020600091509050806000018054600181600116156101000203166002900480601f016020809104026020016040519081016040528092919081815260200182805460018160011615610100020316600290048015611d625780601f10611d3757610100808354040283529160200191611d62565b820191906000526020600020905b815481529060010190602001808311611d4557829003601f168201915b505050505090806001018054600181600116156101000203166002900480601f016020809104026020016040519081016040528092919081815260200182805460018160011615610100020316600290048015611e005780601f10611dd557610100808354040283529160200191611e00565b820191906000526020600020905b815481529060010190602001808311611de357829003601f168201915b5050505050908060020160009054906101000a900473ffffffffffffffffffffffffffffffffffffffff16905083565b600080600090505b60028054905081101561202f578273ffffffffffffffffffffffffffffffffffffffff166001600060028481548110611e6d57fe5b9060005260206000200160009054906101000a900473ffffffffffffffffffffffffffffffffffffffff1673ffffffffffffffffffffffffffffffffffffffff1673ffffffffffffffffffffffffffffffffffffffff16815260200190815260200160002060010160009054906101000a900473ffffffffffffffffffffffffffffffffffffffff1673ffffffffffffffffffffffffffffffffffffffff161415612022576001600060028381548110611f2357fe5b9060005260206000200160009054906101000a900473ffffffffffffffffffffffffffffffffffffffff1673ffffffffffffffffffffffffffffffffffffffff1673ffffffffffffffffffffffffffffffffffffffff16815260200190815260200160002060008082016000611f9991906127a7565b6001820160006101000a81549073ffffffffffffffffffffffffffffffffffffffff021916905560028201600090556003820160006101000a81549060ff0219169055505060028181548110611feb57fe5b9060005260206000200160006101000a81549073ffffffffffffffffffffffffffffffffffffffff02191690556001915050612035565b8080600101915050611e38565b50600090505b919050565b60608060008090505b6004805490508110156122fc578373ffffffffffffffffffffffffffffffffffffffff166004828154811061207457fe5b9060005260206000200160009054906101000a900473ffffffffffffffffffffffffffffffffffffffff1673ffffffffffffffffffffffffffffffffffffffff1614156122ef5760036000600483815481106120cc57fe5b9060005260206000200160009054906101000a900473ffffffffffffffffffffffffffffffffffffffff1673ffffffffffffffffffffffffffffffffffffffff1673ffffffffffffffffffffffffffffffffffffffff168152602001908152602001600020600001600360006004848154811061214557fe5b9060005260206000200160009054906101000a900473ffffffffffffffffffffffffffffffffffffffff1673ffffffffffffffffffffffffffffffffffffffff1673ffffffffffffffffffffffffffffffffffffffff168152602001908152602001600020600101818054600181600116156101000203166002900480601f0160208091040260200160405190810160405280929190818152602001828054600181600116156101000203166002900480156122425780601f1061221757610100808354040283529160200191612242565b820191906000526020600020905b81548152906001019060200180831161222557829003601f168201915b50505050509150808054600181600116156101000203166002900480601f0160208091040260200160405190810160405280929190818152602001828054600181600116156101000203166002900480156122de5780601f106122b3576101008083540402835291602001916122de565b820191906000526020600020905b8154815290600101906020018083116122c157829003601f168201915b5050505050905092509250506122fe565b8080600101915050612043565b505b915091565b606060008090505b60028054905081101561253c578273ffffffffffffffffffffffffffffffffffffffff166002828154811061233c57fe5b9060005260206000200160009054906101000a900473ffffffffffffffffffffffffffffffffffffffff1673ffffffffffffffffffffffffffffffffffffffff16141561252f57600160008473ffffffffffffffffffffffffffffffffffffffff1673ffffffffffffffffffffffffffffffffffffffff16815260200190815260200160002060030160009054906101000a900460ff166124f15760016000600283815481106123e857fe5b9060005260206000200160009054906101000a900473ffffffffffffffffffffffffffffffffffffffff1673ffffffffffffffffffffffffffffffffffffffff1673ffffffffffffffffffffffffffffffffffffffff1681526020019081526020016000206000018054600181600116156101000203166002900480601f0160208091040260200160405190810160405280929190818152602001828054600181600116156101000203166002900480156124e45780601f106124b9576101008083540402835291602001916124e4565b820191906000526020600020905b8154815290600101906020018083116124c757829003601f168201915b505050505091505061253e565b6040518060400160405280600481526020017f646f6e650000000000000000000000000000000000000000000000000000000081525091505061253e565b808060010191505061230b565b505b919050565b6001602052806000526040600020600091509050806000018054600181600116156101000203166002900480601f0160208091040260200160405190810160405280929190818152602001828054600181600116156101000203166002900480156125ef5780601f106125c4576101008083540402835291602001916125ef565b820191906000526020600020905b8154815290600101906020018083116125d257829003601f168201915b5050505050908060010160009054906101000a900473ffffffffffffffffffffffffffffffffffffffff16908060020154908060030160009054906101000a900460ff16905084565b6000816040516020018082805190602001908083835b60208310612671578051825260208201915060208101905060208303925061264e565b6001836020036101000a03801982511681845116808217855250505050505090500191505060405160208183030381529060405280519060200120836040516020018082805190602001908083835b602083106126e357805182526020820191506020810190506020830392506126c0565b6001836020036101000a0380198251168184511680821785525050505050509050019150506040516020818303038152906040528051906020012014905092915050565b828054600181600116156101000203166002900490600052602060002090601f016020900481019282601f1061276857805160ff1916838001178555612796565b82800160010185558215612796579182015b8281111561279557825182559160200191906001019061277a565b5b5090506127a391906127ef565b5090565b50805460018160011615610100020316600290046000825580601f106127cd57506127ec565b601f0160209004906000526020600020908101906127eb91906127ef565b5b50565b61281191905b8082111561280d5760008160009055506001016127f5565b5090565b9056fea165627a7a723058205ff9cd5afebb5ac50162b8f4e2fa63350b476f5bbad74ca2e6b5fd6a297b6d760029",
  "source": "pragma solidity >=0.4.21 <0.6.0;\nimport './Signature.sol';\n\ncontract Survey {\n   address public signatureAddress;\n    constructor (address _addr) public {\n        signatureAddress = _addr;\n    }\n\n  struct SurveyStruct {\n    string Id;\n    address owner;\n    bytes32 sHash;\n    bool done;\n  }\n  struct ParticipantStruct {\n    string Id;\n    string SId;\n    address owner;\n  }\n  struct ClaimStruct {\n    string SId;\n    address winner;\n    uint prize;\n  }\n\n  mapping(address => SurveyStruct) public surveyStruct;\n  address[] public surveyList;\n\n  mapping(address => ParticipantStruct) public participantStruct;\n  address[] public participantList;\n\n  mapping(uint => ClaimStruct) public claimStruct;\n  uint public claimCount;\n\n  address[] Claimed;\n\n  function addSurvey(string memory _id,address _owner,string memory _data) public payable returns(bool) {\n    require(!compare(_id, \"\"),'Id Too Small');\n     surveyList.push(_owner);\n     surveyStruct[_owner].Id = _id;\n     surveyStruct[_owner].owner = _owner;\n     surveyStruct[_owner].sHash = keccak256(abi.encodePacked(_data));\n     surveyStruct[_owner].done = false;\n     return true;\n  }\n  function endSurvey(string memory _id,address _winner,uint _prize) public returns(bool) {\n     for (uint i = 0; i < surveyList.length; i++) {\n          if(compare(_id, surveyStruct[surveyList[i]].Id))\n           {\n            surveyStruct[surveyList[i]].done = true;\n            claimStruct[claimCount].SId = _id;\n            claimStruct[claimCount].winner = _winner;\n            claimStruct[claimCount].prize = _prize;\n             return true;\n           }\n    }\n    return false;\n  }\n  function cancelSurvey(address _owner) public returns(bool) {\n     for (uint i = 0; i < surveyList.length; i++) {\n          if(surveyStruct[surveyList[i]].owner == _owner)\n           {\n             delete(surveyStruct[surveyList[i]]);\n             delete(surveyList[i]);\n             return true;\n           }\n    }\n    return false;\n  }\n  function claimPrize(address _winner,bytes32 msgHash, uint8 v, bytes32 r, bytes32 s) public returns(bool) {\n    Signature instanceSignature = Signature(signatureAddress);\n    address addr = instanceSignature.verifySign(_winner,msgHash,v,r,s);\n    if(addr == _winner)\n    {\n      for (uint i = 0; i < claimCount;i++) {\n       if(claimStruct[i].winner == _winner)\n       {\n        if(address(this).balance < claimStruct[i].prize) revert('no enough coin');\n        msg.sender.transfer(claimStruct[i].prize);\n        Claimed.push(_winner);\n        return true;\n       }\n      }\n    }\n    return false;\n  }\n  function checkPrize() public view returns(address[] memory) {\n    return Claimed;\n  }\n  function getBalance() public view returns(uint256) {\n    return address(this).balance;\n  }\n  function addParticipation(string memory _id,string memory _sid,address _owner) public returns(bool) {\n    require(!compare(_id, \"\"),'Id Too Small');\n    require(!compare(_sid, \"\"),'SId Too Small');\n     participantList.push(_owner);\n     participantStruct[_owner].Id = _id;\n     participantStruct[_owner].SId = _sid;\n     participantStruct[_owner].owner = _owner;\n     return true;\n  }\n  function compare(string memory first,string memory second) private pure returns(bool)  {\n    return keccak256(abi.encodePacked(first)) == keccak256(abi.encodePacked(second));\n  }\n  function surveyExsist(address _owner) public view returns(bool){\n   if(surveyStruct[_owner].owner == _owner && !surveyStruct[_owner].done)\n     return true;\n    return false;\n  }\n  function getSurveyByAddress(address _owner) public view returns (string memory) {\n     for (uint i = 0; i < surveyList.length; i++) {\n            if(surveyList[i] == _owner)\n            {\n              if(!surveyStruct[_owner].done)\n               return surveyStruct[surveyList[i]].Id;\n            else\n               return \"done\";\n            }\n    }\n  }\n  function getparticipantByAddress(address _owner) public view returns (string memory,string memory) {\n     for (uint i = 0; i < participantList.length; i++) {\n            if(participantList[i] == _owner)\n            return (participantStruct[participantList[i]].Id,\n                    participantStruct[participantList[i]].SId);\n    }\n  }\n}",
  "sourcePath": "/home/xidian/Source/repo/surveyX/contracts/Survey.sol",
  "compiler": {
    "name": "solc",
    "version": "0.5.8+commit.23d335f2.Emscripten.clang"
  },
  "schemaVersion": "3.0.11",
  "updatedAt": "2019-07-21T20:53:36.512Z",
  "devdoc": {
    "methods": {}
  },
  "userdoc": {
    "methods": {}
  }
}